{
  "_format": "hh-sol-artifact-1",
  "contractName": "GlobalStateContract",
  "sourceName": "contracts/GlobalStateContract.sol",
  "abi": [
    {
      "inputs": [
        {
          "internalType": "uint256",
          "name": "_penomoFee",
          "type": "uint256"
        }
      ],
      "stateMutability": "nonpayable",
      "type": "constructor"
    },
    {
      "anonymous": false,
      "inputs": [
        {
          "indexed": true,
          "internalType": "address",
          "name": "investor",
          "type": "address"
        }
      ],
      "name": "InvestorRegistered",
      "type": "event"
    },
    {
      "anonymous": false,
      "inputs": [
        {
          "indexed": false,
          "internalType": "uint256",
          "name": "newFee",
          "type": "uint256"
        }
      ],
      "name": "PenomoFeeUpdated",
      "type": "event"
    },
    {
      "inputs": [
        {
          "internalType": "address",
          "name": "investor",
          "type": "address"
        }
      ],
      "name": "isRegisteredInvestor",
      "outputs": [
        {
          "internalType": "bool",
          "name": "",
          "type": "bool"
        }
      ],
      "stateMutability": "view",
      "type": "function"
    },
    {
      "inputs": [],
      "name": "owner",
      "outputs": [
        {
          "internalType": "address",
          "name": "",
          "type": "address"
        }
      ],
      "stateMutability": "view",
      "type": "function"
    },
    {
      "inputs": [],
      "name": "penomoFee",
      "outputs": [
        {
          "internalType": "uint256",
          "name": "",
          "type": "uint256"
        }
      ],
      "stateMutability": "view",
      "type": "function"
    },
    {
      "inputs": [
        {
          "internalType": "address",
          "name": "investor",
          "type": "address"
        }
      ],
      "name": "registerInvestor",
      "outputs": [],
      "stateMutability": "nonpayable",
      "type": "function"
    },
    {
      "inputs": [
        {
          "internalType": "uint256",
          "name": "",
          "type": "uint256"
        }
      ],
      "name": "registeredInvestors",
      "outputs": [
        {
          "internalType": "address",
          "name": "",
          "type": "address"
        }
      ],
      "stateMutability": "view",
      "type": "function"
    },
    {
      "inputs": [
        {
          "internalType": "uint256",
          "name": "_penomoFee",
          "type": "uint256"
        }
      ],
      "name": "setPenomoFee",
      "outputs": [],
      "stateMutability": "nonpayable",
      "type": "function"
    }
  ],
  "bytecode": "0x608060405234801561001057600080fd5b506040516108d93803806108d9833981810160405281019061003291906100ba565b336000806101000a81548173ffffffffffffffffffffffffffffffffffffffff021916908373ffffffffffffffffffffffffffffffffffffffff16021790555080600281905550506100e7565b600080fd5b6000819050919050565b61009781610084565b81146100a257600080fd5b50565b6000815190506100b48161008e565b92915050565b6000602082840312156100d0576100cf61007f565b5b60006100de848285016100a5565b91505092915050565b6107e3806100f66000396000f3fe608060405234801561001057600080fd5b50600436106100625760003560e01c80631da7180d14610067578063691c9484146100975780636ccb03f1146100b35780638da5cb5b146100d15780639f3d07ea146100ef578063e7cb95471461011f575b600080fd5b610081600480360381019061007c91906104dc565b61013b565b60405161008e919061054a565b60405180910390f35b6100b160048036038101906100ac9190610591565b61017a565b005b6100bb6102fa565b6040516100c891906105cd565b60405180910390f35b6100d9610300565b6040516100e6919061054a565b60405180910390f35b61010960048036038101906101049190610591565b610324565b6040516101169190610603565b60405180910390f35b610139600480360381019061013491906104dc565b6103d2565b005b6001818154811061014b57600080fd5b906000526020600020016000915054906101000a900473ffffffffffffffffffffffffffffffffffffffff1681565b60008054906101000a900473ffffffffffffffffffffffffffffffffffffffff1673ffffffffffffffffffffffffffffffffffffffff163373ffffffffffffffffffffffffffffffffffffffff1614610208576040517f08c379a00000000000000000000000000000000000000000000000000000000081526004016101ff9061067b565b60405180910390fd5b61021181610324565b15610251576040517f08c379a0000000000000000000000000000000000000000000000000000000008152600401610248906106e7565b60405180910390fd5b6001819080600181540180825580915050600190039060005260206000200160009091909190916101000a81548173ffffffffffffffffffffffffffffffffffffffff021916908373ffffffffffffffffffffffffffffffffffffffff1602179055508073ffffffffffffffffffffffffffffffffffffffff167f01e428601546e19350993364c26c5a618b33ef987abc24525c998748ae96429460405160405180910390a250565b60025481565b60008054906101000a900473ffffffffffffffffffffffffffffffffffffffff1681565b600080600090505b6001805490508110156103c7578273ffffffffffffffffffffffffffffffffffffffff166001828154811061036457610363610707565b5b9060005260206000200160009054906101000a900473ffffffffffffffffffffffffffffffffffffffff1673ffffffffffffffffffffffffffffffffffffffff16036103b45760019150506103cd565b80806103bf90610765565b91505061032c565b50600090505b919050565b60008054906101000a900473ffffffffffffffffffffffffffffffffffffffff1673ffffffffffffffffffffffffffffffffffffffff163373ffffffffffffffffffffffffffffffffffffffff1614610460576040517f08c379a00000000000000000000000000000000000000000000000000000000081526004016104579061067b565b60405180910390fd5b806002819055507f5693828326e4600af9e94ec280303b108e09ca2a28d49fa24cdb27d129ef9e578160405161049691906105cd565b60405180910390a150565b600080fd5b6000819050919050565b6104b9816104a6565b81146104c457600080fd5b50565b6000813590506104d6816104b0565b92915050565b6000602082840312156104f2576104f16104a1565b5b6000610500848285016104c7565b91505092915050565b600073ffffffffffffffffffffffffffffffffffffffff82169050919050565b600061053482610509565b9050919050565b61054481610529565b82525050565b600060208201905061055f600083018461053b565b92915050565b61056e81610529565b811461057957600080fd5b50565b60008135905061058b81610565565b92915050565b6000602082840312156105a7576105a66104a1565b5b60006105b58482850161057c565b91505092915050565b6105c7816104a6565b82525050565b60006020820190506105e260008301846105be565b92915050565b60008115159050919050565b6105fd816105e8565b82525050565b600060208201905061061860008301846105f4565b92915050565b600082825260208201905092915050565b7f4f6e6c7920746865206f776e65722063616e2065786563757465207468697300600082015250565b6000610665601f8361061e565b91506106708261062f565b602082019050919050565b6000602082019050818103600083015261069481610658565b9050919050565b7f496e766573746f7220697320616c726561647920726567697374657265640000600082015250565b60006106d1601e8361061e565b91506106dc8261069b565b602082019050919050565b60006020820190508181036000830152610700816106c4565b9050919050565b7f4e487b7100000000000000000000000000000000000000000000000000000000600052603260045260246000fd5b7f4e487b7100000000000000000000000000000000000000000000000000000000600052601160045260246000fd5b6000610770826104a6565b91507fffffffffffffffffffffffffffffffffffffffffffffffffffffffffffffffff82036107a2576107a1610736565b5b60018201905091905056fea2646970667358221220c4062e084079d12e0690c95f56de50a7bebeef3f6f7bab52429b68269c62009764736f6c63430008140033",
  "linkReferences": {},
  "deployedLinkReferences": {}
}