{"contracts/GlobalStateContract.sol":{"GlobalStateContract":{"abi":[{"inputs":[{"internalType":"uint256","name":"_penomoFee","type":"uint256"}],"stateMutability":"nonpayable","type":"constructor"},{"anonymous":false,"inputs":[{"indexed":true,"internalType":"address","name":"investor","type":"address"}],"name":"InvestorRegistered","type":"event"},{"anonymous":false,"inputs":[{"indexed":false,"internalType":"uint256","name":"newFee","type":"uint256"}],"name":"PenomoFeeUpdated","type":"event"},{"inputs":[{"internalType":"address","name":"investor","type":"address"}],"name":"isRegisteredInvestor","outputs":[{"internalType":"bool","name":"","type":"bool"}],"stateMutability":"view","type":"function"},{"inputs":[],"name":"owner","outputs":[{"internalType":"address","name":"","type":"address"}],"stateMutability":"view","type":"function"},{"inputs":[],"name":"penomoFee","outputs":[{"internalType":"uint256","name":"","type":"uint256"}],"stateMutability":"view","type":"function"},{"inputs":[{"internalType":"address","name":"investor","type":"address"}],"name":"registerInvestor","outputs":[],"stateMutability":"nonpayable","type":"function"},{"inputs":[{"internalType":"uint256","name":"","type":"uint256"}],"name":"registeredInvestors","outputs":[{"internalType":"address","name":"","type":"address"}],"stateMutability":"view","type":"function"},{"inputs":[{"internalType":"uint256","name":"_penomoFee","type":"uint256"}],"name":"setPenomoFee","outputs":[],"stateMutability":"nonpayable","type":"function"}],"evm":{"bytecode":{"linkReferences":{},"object":"608060405234801561001057600080fd5b506040516108d93803806108d9833981810160405281019061003291906100ba565b336000806101000a81548173ffffffffffffffffffffffffffffffffffffffff021916908373ffffffffffffffffffffffffffffffffffffffff16021790555080600281905550506100e7565b600080fd5b6000819050919050565b61009781610084565b81146100a257600080fd5b50565b6000815190506100b48161008e565b92915050565b6000602082840312156100d0576100cf61007f565b5b60006100de848285016100a5565b91505092915050565b6107e3806100f66000396000f3fe608060405234801561001057600080fd5b50600436106100625760003560e01c80631da7180d14610067578063691c9484146100975780636ccb03f1146100b35780638da5cb5b146100d15780639f3d07ea146100ef578063e7cb95471461011f575b600080fd5b610081600480360381019061007c91906104dc565b61013b565b60405161008e919061054a565b60405180910390f35b6100b160048036038101906100ac9190610591565b61017a565b005b6100bb6102fa565b6040516100c891906105cd565b60405180910390f35b6100d9610300565b6040516100e6919061054a565b60405180910390f35b61010960048036038101906101049190610591565b610324565b6040516101169190610603565b60405180910390f35b610139600480360381019061013491906104dc565b6103d2565b005b6001818154811061014b57600080fd5b906000526020600020016000915054906101000a900473ffffffffffffffffffffffffffffffffffffffff1681565b60008054906101000a900473ffffffffffffffffffffffffffffffffffffffff1673ffffffffffffffffffffffffffffffffffffffff163373ffffffffffffffffffffffffffffffffffffffff1614610208576040517f08c379a00000000000000000000000000000000000000000000000000000000081526004016101ff9061067b565b60405180910390fd5b61021181610324565b15610251576040517f08c379a0000000000000000000000000000000000000000000000000000000008152600401610248906106e7565b60405180910390fd5b6001819080600181540180825580915050600190039060005260206000200160009091909190916101000a81548173ffffffffffffffffffffffffffffffffffffffff021916908373ffffffffffffffffffffffffffffffffffffffff1602179055508073ffffffffffffffffffffffffffffffffffffffff167f01e428601546e19350993364c26c5a618b33ef987abc24525c998748ae96429460405160405180910390a250565b60025481565b60008054906101000a900473ffffffffffffffffffffffffffffffffffffffff1681565b600080600090505b6001805490508110156103c7578273ffffffffffffffffffffffffffffffffffffffff166001828154811061036457610363610707565b5b9060005260206000200160009054906101000a900473ffffffffffffffffffffffffffffffffffffffff1673ffffffffffffffffffffffffffffffffffffffff16036103b45760019150506103cd565b80806103bf90610765565b91505061032c565b50600090505b919050565b60008054906101000a900473ffffffffffffffffffffffffffffffffffffffff1673ffffffffffffffffffffffffffffffffffffffff163373ffffffffffffffffffffffffffffffffffffffff1614610460576040517f08c379a00000000000000000000000000000000000000000000000000000000081526004016104579061067b565b60405180910390fd5b806002819055507f5693828326e4600af9e94ec280303b108e09ca2a28d49fa24cdb27d129ef9e578160405161049691906105cd565b60405180910390a150565b600080fd5b6000819050919050565b6104b9816104a6565b81146104c457600080fd5b50565b6000813590506104d6816104b0565b92915050565b6000602082840312156104f2576104f16104a1565b5b6000610500848285016104c7565b91505092915050565b600073ffffffffffffffffffffffffffffffffffffffff82169050919050565b600061053482610509565b9050919050565b61054481610529565b82525050565b600060208201905061055f600083018461053b565b92915050565b61056e81610529565b811461057957600080fd5b50565b60008135905061058b81610565565b92915050565b6000602082840312156105a7576105a66104a1565b5b60006105b58482850161057c565b91505092915050565b6105c7816104a6565b82525050565b60006020820190506105e260008301846105be565b92915050565b60008115159050919050565b6105fd816105e8565b82525050565b600060208201905061061860008301846105f4565b92915050565b600082825260208201905092915050565b7f4f6e6c7920746865206f776e65722063616e2065786563757465207468697300600082015250565b6000610665601f8361061e565b91506106708261062f565b602082019050919050565b6000602082019050818103600083015261069481610658565b9050919050565b7f496e766573746f7220697320616c726561647920726567697374657265640000600082015250565b60006106d1601e8361061e565b91506106dc8261069b565b602082019050919050565b60006020820190508181036000830152610700816106c4565b9050919050565b7f4e487b7100000000000000000000000000000000000000000000000000000000600052603260045260246000fd5b7f4e487b7100000000000000000000000000000000000000000000000000000000600052601160045260246000fd5b6000610770826104a6565b91507fffffffffffffffffffffffffffffffffffffffffffffffffffffffffffffffff82036107a2576107a1610736565b5b60018201905091905056fea2646970667358221220c4062e084079d12e0690c95f56de50a7bebeef3f6f7bab52429b68269c62009764736f6c63430008140033","opcodes":"PUSH1 0x80 PUSH1 0x40 MSTORE CALLVALUE DUP1 ISZERO PUSH2 0x10 JUMPI PUSH1 0x0 DUP1 REVERT JUMPDEST POP PUSH1 0x40 MLOAD PUSH2 0x8D9 CODESIZE SUB DUP1 PUSH2 0x8D9 DUP4 CODECOPY DUP2 DUP2 ADD PUSH1 0x40 MSTORE DUP2 ADD SWAP1 PUSH2 0x32 SWAP2 SWAP1 PUSH2 0xBA JUMP JUMPDEST CALLER PUSH1 0x0 DUP1 PUSH2 0x100 EXP DUP2 SLOAD DUP2 PUSH20 0xFFFFFFFFFFFFFFFFFFFFFFFFFFFFFFFFFFFFFFFF MUL NOT AND SWAP1 DUP4 PUSH20 0xFFFFFFFFFFFFFFFFFFFFFFFFFFFFFFFFFFFFFFFF AND MUL OR SWAP1 SSTORE POP DUP1 PUSH1 0x2 DUP2 SWAP1 SSTORE POP POP PUSH2 0xE7 JUMP JUMPDEST PUSH1 0x0 DUP1 REVERT JUMPDEST PUSH1 0x0 DUP2 SWAP1 POP SWAP2 SWAP1 POP JUMP JUMPDEST PUSH2 0x97 DUP2 PUSH2 0x84 JUMP JUMPDEST DUP2 EQ PUSH2 0xA2 JUMPI PUSH1 0x0 DUP1 REVERT JUMPDEST POP JUMP JUMPDEST PUSH1 0x0 DUP2 MLOAD SWAP1 POP PUSH2 0xB4 DUP2 PUSH2 0x8E JUMP JUMPDEST SWAP3 SWAP2 POP POP JUMP JUMPDEST PUSH1 0x0 PUSH1 0x20 DUP3 DUP5 SUB SLT ISZERO PUSH2 0xD0 JUMPI PUSH2 0xCF PUSH2 0x7F JUMP JUMPDEST JUMPDEST PUSH1 0x0 PUSH2 0xDE DUP5 DUP3 DUP6 ADD PUSH2 0xA5 JUMP JUMPDEST SWAP2 POP POP SWAP3 SWAP2 POP POP JUMP JUMPDEST PUSH2 0x7E3 DUP1 PUSH2 0xF6 PUSH1 0x0 CODECOPY PUSH1 0x0 RETURN INVALID PUSH1 0x80 PUSH1 0x40 MSTORE CALLVALUE DUP1 ISZERO PUSH2 0x10 JUMPI PUSH1 0x0 DUP1 REVERT JUMPDEST POP PUSH1 0x4 CALLDATASIZE LT PUSH2 0x62 JUMPI PUSH1 0x0 CALLDATALOAD PUSH1 0xE0 SHR DUP1 PUSH4 0x1DA7180D EQ PUSH2 0x67 JUMPI DUP1 PUSH4 0x691C9484 EQ PUSH2 0x97 JUMPI DUP1 PUSH4 0x6CCB03F1 EQ PUSH2 0xB3 JUMPI DUP1 PUSH4 0x8DA5CB5B EQ PUSH2 0xD1 JUMPI DUP1 PUSH4 0x9F3D07EA EQ PUSH2 0xEF JUMPI DUP1 PUSH4 0xE7CB9547 EQ PUSH2 0x11F JUMPI JUMPDEST PUSH1 0x0 DUP1 REVERT JUMPDEST PUSH2 0x81 PUSH1 0x4 DUP1 CALLDATASIZE SUB DUP2 ADD SWAP1 PUSH2 0x7C SWAP2 SWAP1 PUSH2 0x4DC JUMP JUMPDEST PUSH2 0x13B JUMP JUMPDEST PUSH1 0x40 MLOAD PUSH2 0x8E SWAP2 SWAP1 PUSH2 0x54A JUMP JUMPDEST PUSH1 0x40 MLOAD DUP1 SWAP2 SUB SWAP1 RETURN JUMPDEST PUSH2 0xB1 PUSH1 0x4 DUP1 CALLDATASIZE SUB DUP2 ADD SWAP1 PUSH2 0xAC SWAP2 SWAP1 PUSH2 0x591 JUMP JUMPDEST PUSH2 0x17A JUMP JUMPDEST STOP JUMPDEST PUSH2 0xBB PUSH2 0x2FA JUMP JUMPDEST PUSH1 0x40 MLOAD PUSH2 0xC8 SWAP2 SWAP1 PUSH2 0x5CD JUMP JUMPDEST PUSH1 0x40 MLOAD DUP1 SWAP2 SUB SWAP1 RETURN JUMPDEST PUSH2 0xD9 PUSH2 0x300 JUMP JUMPDEST PUSH1 0x40 MLOAD PUSH2 0xE6 SWAP2 SWAP1 PUSH2 0x54A JUMP JUMPDEST PUSH1 0x40 MLOAD DUP1 SWAP2 SUB SWAP1 RETURN JUMPDEST PUSH2 0x109 PUSH1 0x4 DUP1 CALLDATASIZE SUB DUP2 ADD SWAP1 PUSH2 0x104 SWAP2 SWAP1 PUSH2 0x591 JUMP JUMPDEST PUSH2 0x324 JUMP JUMPDEST PUSH1 0x40 MLOAD PUSH2 0x116 SWAP2 SWAP1 PUSH2 0x603 JUMP JUMPDEST PUSH1 0x40 MLOAD DUP1 SWAP2 SUB SWAP1 RETURN JUMPDEST PUSH2 0x139 PUSH1 0x4 DUP1 CALLDATASIZE SUB DUP2 ADD SWAP1 PUSH2 0x134 SWAP2 SWAP1 PUSH2 0x4DC JUMP JUMPDEST PUSH2 0x3D2 JUMP JUMPDEST STOP JUMPDEST PUSH1 0x1 DUP2 DUP2 SLOAD DUP2 LT PUSH2 0x14B JUMPI PUSH1 0x0 DUP1 REVERT JUMPDEST SWAP1 PUSH1 0x0 MSTORE PUSH1 0x20 PUSH1 0x0 KECCAK256 ADD PUSH1 0x0 SWAP2 POP SLOAD SWAP1 PUSH2 0x100 EXP SWAP1 DIV PUSH20 0xFFFFFFFFFFFFFFFFFFFFFFFFFFFFFFFFFFFFFFFF AND DUP2 JUMP JUMPDEST PUSH1 0x0 DUP1 SLOAD SWAP1 PUSH2 0x100 EXP SWAP1 DIV PUSH20 0xFFFFFFFFFFFFFFFFFFFFFFFFFFFFFFFFFFFFFFFF AND PUSH20 0xFFFFFFFFFFFFFFFFFFFFFFFFFFFFFFFFFFFFFFFF AND CALLER PUSH20 0xFFFFFFFFFFFFFFFFFFFFFFFFFFFFFFFFFFFFFFFF AND EQ PUSH2 0x208 JUMPI PUSH1 0x40 MLOAD PUSH32 0x8C379A000000000000000000000000000000000000000000000000000000000 DUP2 MSTORE PUSH1 0x4 ADD PUSH2 0x1FF SWAP1 PUSH2 0x67B JUMP JUMPDEST PUSH1 0x40 MLOAD DUP1 SWAP2 SUB SWAP1 REVERT JUMPDEST PUSH2 0x211 DUP2 PUSH2 0x324 JUMP JUMPDEST ISZERO PUSH2 0x251 JUMPI PUSH1 0x40 MLOAD PUSH32 0x8C379A000000000000000000000000000000000000000000000000000000000 DUP2 MSTORE PUSH1 0x4 ADD PUSH2 0x248 SWAP1 PUSH2 0x6E7 JUMP JUMPDEST PUSH1 0x40 MLOAD DUP1 SWAP2 SUB SWAP1 REVERT JUMPDEST PUSH1 0x1 DUP2 SWAP1 DUP1 PUSH1 0x1 DUP2 SLOAD ADD DUP1 DUP3 SSTORE DUP1 SWAP2 POP POP PUSH1 0x1 SWAP1 SUB SWAP1 PUSH1 0x0 MSTORE PUSH1 0x20 PUSH1 0x0 KECCAK256 ADD PUSH1 0x0 SWAP1 SWAP2 SWAP1 SWAP2 SWAP1 SWAP2 PUSH2 0x100 EXP DUP2 SLOAD DUP2 PUSH20 0xFFFFFFFFFFFFFFFFFFFFFFFFFFFFFFFFFFFFFFFF MUL NOT AND SWAP1 DUP4 PUSH20 0xFFFFFFFFFFFFFFFFFFFFFFFFFFFFFFFFFFFFFFFF AND MUL OR SWAP1 SSTORE POP DUP1 PUSH20 0xFFFFFFFFFFFFFFFFFFFFFFFFFFFFFFFFFFFFFFFF AND PUSH32 0x1E428601546E19350993364C26C5A618B33EF987ABC24525C998748AE964294 PUSH1 0x40 MLOAD PUSH1 0x40 MLOAD DUP1 SWAP2 SUB SWAP1 LOG2 POP JUMP JUMPDEST PUSH1 0x2 SLOAD DUP2 JUMP JUMPDEST PUSH1 0x0 DUP1 SLOAD SWAP1 PUSH2 0x100 EXP SWAP1 DIV PUSH20 0xFFFFFFFFFFFFFFFFFFFFFFFFFFFFFFFFFFFFFFFF AND DUP2 JUMP JUMPDEST PUSH1 0x0 DUP1 PUSH1 0x0 SWAP1 POP JUMPDEST PUSH1 0x1 DUP1 SLOAD SWAP1 POP DUP2 LT ISZERO PUSH2 0x3C7 JUMPI DUP3 PUSH20 0xFFFFFFFFFFFFFFFFFFFFFFFFFFFFFFFFFFFFFFFF AND PUSH1 0x1 DUP3 DUP2 SLOAD DUP2 LT PUSH2 0x364 JUMPI PUSH2 0x363 PUSH2 0x707 JUMP JUMPDEST JUMPDEST SWAP1 PUSH1 0x0 MSTORE PUSH1 0x20 PUSH1 0x0 KECCAK256 ADD PUSH1 0x0 SWAP1 SLOAD SWAP1 PUSH2 0x100 EXP SWAP1 DIV PUSH20 0xFFFFFFFFFFFFFFFFFFFFFFFFFFFFFFFFFFFFFFFF AND PUSH20 0xFFFFFFFFFFFFFFFFFFFFFFFFFFFFFFFFFFFFFFFF AND SUB PUSH2 0x3B4 JUMPI PUSH1 0x1 SWAP2 POP POP PUSH2 0x3CD JUMP JUMPDEST DUP1 DUP1 PUSH2 0x3BF SWAP1 PUSH2 0x765 JUMP JUMPDEST SWAP2 POP POP PUSH2 0x32C JUMP JUMPDEST POP PUSH1 0x0 SWAP1 POP JUMPDEST SWAP2 SWAP1 POP JUMP JUMPDEST PUSH1 0x0 DUP1 SLOAD SWAP1 PUSH2 0x100 EXP SWAP1 DIV PUSH20 0xFFFFFFFFFFFFFFFFFFFFFFFFFFFFFFFFFFFFFFFF AND PUSH20 0xFFFFFFFFFFFFFFFFFFFFFFFFFFFFFFFFFFFFFFFF AND CALLER PUSH20 0xFFFFFFFFFFFFFFFFFFFFFFFFFFFFFFFFFFFFFFFF AND EQ PUSH2 0x460 JUMPI PUSH1 0x40 MLOAD PUSH32 0x8C379A000000000000000000000000000000000000000000000000000000000 DUP2 MSTORE PUSH1 0x4 ADD PUSH2 0x457 SWAP1 PUSH2 0x67B JUMP JUMPDEST PUSH1 0x40 MLOAD DUP1 SWAP2 SUB SWAP1 REVERT JUMPDEST DUP1 PUSH1 0x2 DUP2 SWAP1 SSTORE POP PUSH32 0x5693828326E4600AF9E94EC280303B108E09CA2A28D49FA24CDB27D129EF9E57 DUP2 PUSH1 0x40 MLOAD PUSH2 0x496 SWAP2 SWAP1 PUSH2 0x5CD JUMP JUMPDEST PUSH1 0x40 MLOAD DUP1 SWAP2 SUB SWAP1 LOG1 POP JUMP JUMPDEST PUSH1 0x0 DUP1 REVERT JUMPDEST PUSH1 0x0 DUP2 SWAP1 POP SWAP2 SWAP1 POP JUMP JUMPDEST PUSH2 0x4B9 DUP2 PUSH2 0x4A6 JUMP JUMPDEST DUP2 EQ PUSH2 0x4C4 JUMPI PUSH1 0x0 DUP1 REVERT JUMPDEST POP JUMP JUMPDEST PUSH1 0x0 DUP2 CALLDATALOAD SWAP1 POP PUSH2 0x4D6 DUP2 PUSH2 0x4B0 JUMP JUMPDEST SWAP3 SWAP2 POP POP JUMP JUMPDEST PUSH1 0x0 PUSH1 0x20 DUP3 DUP5 SUB SLT ISZERO PUSH2 0x4F2 JUMPI PUSH2 0x4F1 PUSH2 0x4A1 JUMP JUMPDEST JUMPDEST PUSH1 0x0 PUSH2 0x500 DUP5 DUP3 DUP6 ADD PUSH2 0x4C7 JUMP JUMPDEST SWAP2 POP POP SWAP3 SWAP2 POP POP JUMP JUMPDEST PUSH1 0x0 PUSH20 0xFFFFFFFFFFFFFFFFFFFFFFFFFFFFFFFFFFFFFFFF DUP3 AND SWAP1 POP SWAP2 SWAP1 POP JUMP JUMPDEST PUSH1 0x0 PUSH2 0x534 DUP3 PUSH2 0x509 JUMP JUMPDEST SWAP1 POP SWAP2 SWAP1 POP JUMP JUMPDEST PUSH2 0x544 DUP2 PUSH2 0x529 JUMP JUMPDEST DUP3 MSTORE POP POP JUMP JUMPDEST PUSH1 0x0 PUSH1 0x20 DUP3 ADD SWAP1 POP PUSH2 0x55F PUSH1 0x0 DUP4 ADD DUP5 PUSH2 0x53B JUMP JUMPDEST SWAP3 SWAP2 POP POP JUMP JUMPDEST PUSH2 0x56E DUP2 PUSH2 0x529 JUMP JUMPDEST DUP2 EQ PUSH2 0x579 JUMPI PUSH1 0x0 DUP1 REVERT JUMPDEST POP JUMP JUMPDEST PUSH1 0x0 DUP2 CALLDATALOAD SWAP1 POP PUSH2 0x58B DUP2 PUSH2 0x565 JUMP JUMPDEST SWAP3 SWAP2 POP POP JUMP JUMPDEST PUSH1 0x0 PUSH1 0x20 DUP3 DUP5 SUB SLT ISZERO PUSH2 0x5A7 JUMPI PUSH2 0x5A6 PUSH2 0x4A1 JUMP JUMPDEST JUMPDEST PUSH1 0x0 PUSH2 0x5B5 DUP5 DUP3 DUP6 ADD PUSH2 0x57C JUMP JUMPDEST SWAP2 POP POP SWAP3 SWAP2 POP POP JUMP JUMPDEST PUSH2 0x5C7 DUP2 PUSH2 0x4A6 JUMP JUMPDEST DUP3 MSTORE POP POP JUMP JUMPDEST PUSH1 0x0 PUSH1 0x20 DUP3 ADD SWAP1 POP PUSH2 0x5E2 PUSH1 0x0 DUP4 ADD DUP5 PUSH2 0x5BE JUMP JUMPDEST SWAP3 SWAP2 POP POP JUMP JUMPDEST PUSH1 0x0 DUP2 ISZERO ISZERO SWAP1 POP SWAP2 SWAP1 POP JUMP JUMPDEST PUSH2 0x5FD DUP2 PUSH2 0x5E8 JUMP JUMPDEST DUP3 MSTORE POP POP JUMP JUMPDEST PUSH1 0x0 PUSH1 0x20 DUP3 ADD SWAP1 POP PUSH2 0x618 PUSH1 0x0 DUP4 ADD DUP5 PUSH2 0x5F4 JUMP JUMPDEST SWAP3 SWAP2 POP POP JUMP JUMPDEST PUSH1 0x0 DUP3 DUP3 MSTORE PUSH1 0x20 DUP3 ADD SWAP1 POP SWAP3 SWAP2 POP POP JUMP JUMPDEST PUSH32 0x4F6E6C7920746865206F776E65722063616E2065786563757465207468697300 PUSH1 0x0 DUP3 ADD MSTORE POP JUMP JUMPDEST PUSH1 0x0 PUSH2 0x665 PUSH1 0x1F DUP4 PUSH2 0x61E JUMP JUMPDEST SWAP2 POP PUSH2 0x670 DUP3 PUSH2 0x62F JUMP JUMPDEST PUSH1 0x20 DUP3 ADD SWAP1 POP SWAP2 SWAP1 POP JUMP JUMPDEST PUSH1 0x0 PUSH1 0x20 DUP3 ADD SWAP1 POP DUP2 DUP2 SUB PUSH1 0x0 DUP4 ADD MSTORE PUSH2 0x694 DUP2 PUSH2 0x658 JUMP JUMPDEST SWAP1 POP SWAP2 SWAP1 POP JUMP JUMPDEST PUSH32 0x496E766573746F7220697320616C726561647920726567697374657265640000 PUSH1 0x0 DUP3 ADD MSTORE POP JUMP JUMPDEST PUSH1 0x0 PUSH2 0x6D1 PUSH1 0x1E DUP4 PUSH2 0x61E JUMP JUMPDEST SWAP2 POP PUSH2 0x6DC DUP3 PUSH2 0x69B JUMP JUMPDEST PUSH1 0x20 DUP3 ADD SWAP1 POP SWAP2 SWAP1 POP JUMP JUMPDEST PUSH1 0x0 PUSH1 0x20 DUP3 ADD SWAP1 POP DUP2 DUP2 SUB PUSH1 0x0 DUP4 ADD MSTORE PUSH2 0x700 DUP2 PUSH2 0x6C4 JUMP JUMPDEST SWAP1 POP SWAP2 SWAP1 POP JUMP JUMPDEST PUSH32 0x4E487B7100000000000000000000000000000000000000000000000000000000 PUSH1 0x0 MSTORE PUSH1 0x32 PUSH1 0x4 MSTORE PUSH1 0x24 PUSH1 0x0 REVERT JUMPDEST PUSH32 0x4E487B7100000000000000000000000000000000000000000000000000000000 PUSH1 0x0 MSTORE PUSH1 0x11 PUSH1 0x4 MSTORE PUSH1 0x24 PUSH1 0x0 REVERT JUMPDEST PUSH1 0x0 PUSH2 0x770 DUP3 PUSH2 0x4A6 JUMP JUMPDEST SWAP2 POP PUSH32 0xFFFFFFFFFFFFFFFFFFFFFFFFFFFFFFFFFFFFFFFFFFFFFFFFFFFFFFFFFFFFFFFF DUP3 SUB PUSH2 0x7A2 JUMPI PUSH2 0x7A1 PUSH2 0x736 JUMP JUMPDEST JUMPDEST PUSH1 0x1 DUP3 ADD SWAP1 POP SWAP2 SWAP1 POP JUMP INVALID LOG2 PUSH5 0x6970667358 0x22 SLT KECCAK256 0xC4 MOD 0x2E ADDMOD BLOCKHASH PUSH26 0xD12E0690C95F56DE50A7BEBEEF3F6F7BAB52429B68269C620097 PUSH5 0x736F6C6343 STOP ADDMOD EQ STOP CALLER "},"methodIdentifiers":{"isRegisteredInvestor(address)":"9f3d07ea","owner()":"8da5cb5b","penomoFee()":"6ccb03f1","registerInvestor(address)":"691c9484","registeredInvestors(uint256)":"1da7180d","setPenomoFee(uint256)":"e7cb9547"}}}}}